S00D00004C41425F312E73726563B8
S11300000C9434000C943E000C943E000C943E007E
S11300100C943E000C943E000C943E000C943E0064
S11300200C943E000C943E000C943E000C943E0054
S11300300C943E000C943E000C943E000C943E0044
S11300400C943E000C943E000C943E000C943E0034
S11300500C943E000C943E000C943E000C943E0024
S11300600C943E000C943E0011241FBECFEFD8E048
S1130070DEBFCDBF0E9440000C9470000C940000C1
S11300808FEF8AB987B1886387B988B1806288B9EC
S113009088B1877E88B98FE78BB98FEB9DE501978F
S11300A0F1F700C0000088B1886088B988B18F7CFE
S11300B088B980E98BB98FEB9DE50197F1F700C012
S11300C0000088B1806188B988B1877D88B980E6ED
S11300D08BB98FEB9DE50197F1F700C00000D5CFF8
S10700E0F894FFCFBE
S9030000FC
