S00D00004C41425F312E73726563B8
S11300000C9434000C9451000C9451000C94AC00EA
S11300100C9451000C9451000C9451000C94510018
S11300200C9451000C9451000C9451000C94510008
S11300300C9451000C9451000C9451000C945100F8
S11300400C9451000C9451000C9451000C945100E8
S11300500C9451000C9451000C9451000C945100D8
S11300600C9451000C94510011241FBECFEFD8E022
S1130070DEBFCDBF11E0A0E0B1E0E8EEF2E002C0E7
S113008005900D92AC30B107D9F721E0ACE0B1E0B6
S113009001C01D92A131B207E1F70E94FD000C944A
S11300A072010C9400002FEF82E597E0215080400C
S11300B09040E1F700C00000089580910F01813065
S11300C0A9F480910D018F5F80930D0190910D0132
S11300D081E0953008F480E080930C0190910D014B
S11300E081E0953008F080E080930F0108958091BD
S11300F00F018130B1F480910E018F5F80930E0166
S113010080910E01853010F082E001C080E0809380
S11301100C0190910E0181E0953008F080E080930D
S11301200F01089580910C01813049F488B18062F7
S113013088B988B1877E88B98CE08BB9089580919D
S11301400C01823041F488B1806288B988B1877E1D
S113015088B98BE58BB908951F920F920FB60F9251
S113016011242F933F934F935F936F937F938F93B8
S11301709F93AF93BF93EF93FF93189908C0809117
S11301800F01813021F40E9477000E9453001999D5
S113019008C080910F01813021F40E945D000E940B
S11301A053001A990EC081E08093100110920F0140
S11301B086E08093000110920D0110920E010E94BE
S11301C05300FF91EF91BF91AF919F918F917F91D8
S11301D06F915F914F913F912F910F900FBE0F90B0
S11301E01F901895E8E6F0E0808181608083EBE65B
S11301F0F0E080818760808308958FEF8AB987B1AA
S1130200886387B984B1887F84B985B1876085B9EB
S11302100E94F200789434C010920D0110920E01E5
S113022088B1806288B988B1877E88B9E09100017D
S1130230F0E0EA5FFE4F80818BB99091000181E08C
S1130240911101C080E0809310019091000181E040
S1130250911180E080930F012FE787EC90E3215008
S113026080409040E1F700C000008091000181507F
S1130270809300018FE99FE00197F1F700C000002F
S113028080911001882349F1C7CF88B1886088B96B
S113029088B18F7C88B9E0910D01F0E0EF5FFE4FEB
S11302A080818BB98FEB9DE50197F1F700C00000C9
S11302B088B1806188B988B1877D88B9E0910E01E1
S11302C0F0E0EF5FFE4F80818BB98FEB9DE50197E6
S11302D0F1F700C000000E94920080910F0181118B
S10B02E0D4CFCECFF894FFCF78
S10F02E80500402010803F0C5B5D6C752D
S9030000FC
