S00D00004C41425F312E73726563B8
S11300000C9434000C9449000C9449000C94740032
S11300100C9449000C9449000C9449000C94490038
S11300200C9449000C9449000C9449000C945F0012
S11300300C9449000C9449000C9449000C94490018
S11300400C9449000C9449000C9449000C94490008
S11300500C9449000C9449000C9449000C944900F8
S11300600C9449000C94490011241FBECFEFD8E032
S1130070DEBFCDBF11E0A0E0B1E0E2E7F1E002C0F5
S113008005900D92A830B107D9F70E94A6000C94F0
S1130090B7000C940000E1E8F0E080818860808380
S11300A0AFE6B0E08C9182608C9388E09DE39093FE
S11300B089008093880080818560808308951F92E1
S11300C00F920FB60F9211248F9380910001882311
S11300D029F0809100018150809300018F910F904D
S11300E00FBE0F901F9018951F920F920FB60F928C
S11300F011248F93EF93FF93189902C08FEF8BB95C
S1130100199902C08CE08BB91A990DC088B180622C
S113011088B988B1877E88B9E0910001F0E0EF5F8B
S1130120FE4F80818BB9FF91EF918F910F900FBE9D
S11301300F901F901895E8E6F0E08081816080833D
S1130140EBE6F0E080818760808308958FEF8AB9C1
S113015087B1886387B984B1887F84B985B18760A2
S113016085B90E949B000E944B007894FFCFF894BD
S1050170FFCFBB
S10B0172053F0C5B5D6C750098
S9030000FC
