S00D00004C41425F312E73726563B8
S11300000C9434000C943E000C943E000C943E007E
S11300100C943E000C943E000C943E000C943E0064
S11300200C943E000C943E000C943E000C943E0054
S11300300C943E000C943E000C943E000C943E0044
S11300400C943E000C943E000C943E000C943E0034
S11300500C943E000C943E000C943E000C943E0024
S11300600C943E000C943E0011241FBECFEFD8E048
S1130070DEBFCDBF0E9440000C946B000C940000C6
S11300809FEF9AB987B1886387B99BB988B18062B9
S113009088B988B1877E88B98FE19EE40197F1F72A
S11300A000C0000088B1886088B988B18F7C88B9A5
S11300B08FE19EE40197F1F700C0000088B18061F0
S11300C088B988B1877D88B98FE19EE40197F1F7FB
S10D00D000C00000DBCFF894FFCF5E
S9030000FC
