S00D00004C41425F312E73726563B8
S11300000C9434000C9449000C9449000C9449005D
S11300100C9449000C9449000C9449000C94490038
S11300200C9449000C9449000C9449000C945F0012
S11300300C9449000C9449000C9449000C94490018
S11300400C9449000C9449000C9449000C94490008
S11300500C9449000C9449000C9449000C944900F8
S11300600C9449000C94490011241FBECFEFD8E032
S1130070DEBFCDBF11E0A0E0B1E0E8E1F1E002C0F5
S113008005900D92A830B107D9F70E9474000C9422
S11300908A000C940000E1E8F0E0808188608083AD
S11300A0AFE6B0E08C9182608C9388E09DE39093FE
S11300B089008093880080818560808308951F92E1
S11300C00F920FB60F9211248F9380910001882311
S11300D029F0809100018150809300018F910F904D
S11300E00FBE0F901F9018958FEF8AB987B1886360
S11300F087B90E944B00789488B1806288B988B12E
S1130100877E88B9E0910001F0E0EF5FFE4F8081C7
S10B01108BB9F2CFF894FFCF84
S10B0118053F0C5B5D6C7500F2
S9030000FC
