S00D00004C41425F312E73726563B8
S11300000C9434000C9451000C9451000C94A200F4
S11300100C9451000C9451000C9451000C94510018
S11300200C9451000C9451000C9451000C94510008
S11300300C9451000C9451000C9451000C945100F8
S11300400C9451000C9451000C9451000C945100E8
S11300500C9451000C9451000C9451000C945100D8
S11300600C9451000C94510011241FBECFEFD8E022
S1130070DEBFCDBF11E0A0E0B1E0E8E6F3E002C0EE
S113008005900D92AC30B107D9F721E0ACE0B1E0B6
S113009001C01D92A231B207E1F70E94F7000C944F
S11300A0B2010C9400002FEF82E597E021508040CC
S11300B09040E1F700C00000089580911001813064
S11300C0A9F480910D018F5F80930D0190910D0132
S11300D081E0953008F480E080930C0190910D014B
S11300E081E0953008F080E08093100108958091BC
S11300F010018130B1F480910E018F5F80930E0165
S113010080910E01853010F082E001C080E0809380
S11301100C0190910E0181E0953008F080E080930D
S11301201001089580910C01813021F080910C011F
S1130130823039F4109211011092100181E0809301
S11301400F0108951F920F920FB60F9211242F934F
S11301503F934F935F936F937F938F939F93AF934B
S1130160BF93EF93FF93189908C0809110018130D9
S113017021F40E9477000E945300199908C08091CD
S11301801001813021F40E945D000E9453001A99ED
S113019012C081E0809311011092100110920F019E
S11301A010920C0186E08093000110920D011092D0
S11301B00E010E945300FF91EF91BF91AF919F9167
S11301C08F917F916F915F914F913F912F910F90FC
S11301D00FBE0F901F901895E8E6F0E080818160D3
S11301E08083EBE6F0E080818760808308958FEF61
S11301F08AB987B1886387B984B1887F84B985B1A6
S1130200876085B90E94EC00789434C088B180621C
S113021088B988B1877E88B9809100018150809324
S11302200001E0910001F0E0EA5FFE4F80818BB9AC
S11302309091000181E0911101C080E0809311014F
S11302409091000181E0911180E0809310012FE7EB
S113025087EC90E3215080409040E1F700C000001B
S113026010920D0110920E018FE99FE00197F1F7B2
S113027000C0000080911101882349F1C7CF88B1E3
S1130280886088B988B18F7C88B9E0910D01F0E06D
S1130290EF5FFE4F80818BB98FEB9DE50197F1F7FE
S11302A000C0000088B1806188B988B1877D88B9B1
S11302B0E0910E01F0E0EF5FFE4F80818BB98FEB90
S11302C09DE50197F1F700C000000E949200809123
S11302D010018111D4CF41C080910C018130E9F427
S11302E088B1806288B988B1877E88B98CE08BB97F
S11302F08FEB9DE50197F1F700C0000088B188609D
S113030088B988B18F7C88B980EF8BB98FEB9DE574
S11303100197F1F700C0000020C080910C018230E9
S1130320E1F488B1806288B988B1877E88B98BE5A9
S11303308BB98FEB9DE50197F1F700C0000088B100
S1130340806188B988B1877D88B980EF8BB98FEBDC
S11303509DE50197F1F700C0000080910F01811124
S10B0360BBCF88CFF894FFCF56
S10F03680600402010803F0C5B5D6C75AB
S9030000FC
