S00D00004C41425F312E73726563B8
S11300000C9434000C943E000C943E000C943E007E
S11300100C943E000C943E000C943E000C943E0064
S11300200C943E000C943E000C943E000C943E0054
S11300300C943E000C943E000C943E000C943E0044
S11300400C943E000C943E000C943E000C943E0034
S11300500C943E000C943E000C943E000C943E0024
S11300600C943E000C943E0011241FBECFEFD8E048
S1130070DEBFCDBF0E9440000C94C4000C9400006D
S11300808FEF8AB987B1886387B988B1806288B9EC
S113009088B1877E88B980E48BB92AEA36EE86E98E
S11300A091E02150304080409040D9F7000088B161
S11300B0806288B988B1877E88B980E28BB92AEAE0
S11300C036EE86E991E02150304080409040D9F7E7
S11300D0000088B1806288B988B1877E88B980E1E0
S11300E08BB92AEA36EE86E991E02150304080400F
S11300F09040D9F7000088B1806288B988B1877EC2
S113010088B988E08BB92AEA36EE86E991E0215075
S1130110304080409040D9F7000088B1806288B9AF
S113012088B1877E88B984E08BB92AEA36EE86E9FD
S113013091E02150304080409040D9F7000088B1D0
S1130140806288B988B1877E88B982E08BB92AEA4F
S113015036EE86E991E02150304080409040D9F756
S1130160000088B1806288B988B1877E88B981E04F
S11301708BB92AEA36EE86E991E02150304080407E
S10F01809040D9F7000081CFF894FFCF25
S9030000FC
