S00D00004C41425F312E73726563B8
S11300000C9434000C9449000C9449000C9449005D
S11300100C9449000C9449000C9449000C94490038
S11300200C9449000C9449000C9449000C94490028
S11300300C9449000C9449000C9449000C94490018
S11300400C9449000C9449000C9449000C94490008
S11300500C9449000C9449000C9449000C944900F8
S11300600C9449000C94490011241FBECFEFD8E032
S1130070DEBFCDBF11E0A0E0B1E0EAEEF0E002C0E7
S113008005900D92A630B107D9F70E9460000C9438
S113009073000C94000084B18D7F84B985B18260B3
S11300A085B98AB18E6F8AB90895863038F4E82FFD
S11300B0F0E0E050FF4F80818BB908951BB808959C
S11300C00E944B001999FECFC5E08C2F0E94550069
S11300D02FEF83ED90E3215080409040E1F700C082
S10D00E00000C150F2CFF894FFCFE6
S10900EADE12AEBA72F84A
S9030000FC
