S00D00004C41425F312E73726563B8
S11300000C9434000C943E000C943E000C943E007E
S11300100C943E000C943E000C943E000C943E0064
S11300200C943E000C943E000C943E000C943E0054
S11300300C943E000C943E000C943E000C943E0044
S11300400C943E000C943E000C943E000C943E0034
S11300500C943E000C943E000C943E000C943E0024
S11300600C943E000C943E0011241FBECFEFD8E048
S1130070DEBFCDBF0E9440000C945C000C940000D5
S11300808AB180688AB98BB180688BB92FE986E818
S113009091E0215080409040E1F700C000008BB116
S11300A08F778BB92FE986E891E02150804090400A
S10F00B0E1F700C00000E7CFF894FFCF98
S9030000FC
