S00D00004C41425F312E73726563B8
S11300000C9434000C9451000C9451000C94530043
S11300100C9451000C9451000C9451000C94510018
S11300200C9451000C9451000C9451000C94510008
S11300300C9451000C9451000C9451000C945100F8
S11300400C9451000C9451000C9451000C945100E8
S11300500C9451000C9451000C9451000C945100D8
S11300600C9451000C94510011241FBECFEFD8E022
S1130070DEBFCDBF11E0A0E0B1E0E2E5F2E002C0F6
S113008005900D92AC30B107D9F721E0ACE0B1E0B6
S113009001C01D92A031B207E1F70E94B8000C9490
S11300A027010C9400001F920F920FB60F92112497
S11300B02F938F939F9318991CC080910E018130C8
S11300C0C1F480910D018F5F80930D0180910D012A
S11300D0853018F480910D0101C080E080930D01FA
S11300E02FEF82E597E0215080409040E1F700C077
S11300F0000019991CC080910E018130C1F48091D7
S11301000C018F5F80930C0180910C01853018F4F1
S113011080910C0101C080E080930C012FEF82E5F7
S113012097E0215080409040E1F700C000001A9908
S11301300CC081E080930F012FEF81EE94E02150F9
S113014080409040E1F700C000009F918F912F9173
S11301500F900FBE0F901F901895E8E6F0E0808195
S113016081608083EBE6F0E080818760808308957E
S11301708FEF8AB987B1886387B984B1887F84B9DE
S113018085B1876085B90E94AD00789430C088B18C
S1130190806288B988B1877E88B9E0910001F0E077
S11301A0EA5FFE4F80818BB99091000181E091114B
S11301B001C080E080930F019091000181E09111D2
S11301C080E080930E012FE787EC90E3215080407C
S11301D09040E1F700C000008091000181508093BD
S11301E000018FE99FE00197F1F700C000008091C2
S11301F00F01882339F1CBCF88B1886088B988B1E1
S11302008F7C88B9E0910C01F0E0EF5FFE4F8081B4
S11302108BB98FEB9DE50197F1F700C0000088B121
S1130220806188B988B1877D88B9E0910D01F0E0DB
S1130230EF5FFE4F80818BB98FEB9DE50197F1F75E
S113024000C0000080910E018111D6CFD0CFF89468
S1050250FFCFDA
S10F02520500402010803F0C5B5D6C75C3
S9030000FC
